{
    "_format": "hh-sol-artifact-1",
    "contractName": "BASENFT",
    "sourceName": "contracts/Lock.sol",
    "abi": [
        {
            "inputs": [],
            "stateMutability": "nonpayable",
            "type": "constructor"
        },
        {
            "anonymous": false,
            "inputs": [
                {
                    "indexed": true,
                    "internalType": "address",
                    "name": "owner",
                    "type": "address"
                },
                {
                    "indexed": true,
                    "internalType": "address",
                    "name": "approved",
                    "type": "address"
                },
                {
                    "indexed": true,
                    "internalType": "uint256",
                    "name": "tokenId",
                    "type": "uint256"
                }
            ],
            "name": "Approval",
            "type": "event"
        },
        {
            "anonymous": false,
            "inputs": [
                {
                    "indexed": true,
                    "internalType": "address",
                    "name": "owner",
                    "type": "address"
                },
                {
                    "indexed": true,
                    "internalType": "address",
                    "name": "operator",
                    "type": "address"
                },
                {
                    "indexed": false,
                    "internalType": "bool",
                    "name": "approved",
                    "type": "bool"
                }
            ],
            "name": "ApprovalForAll",
            "type": "event"
        },
        {
            "anonymous": false,
            "inputs": [
                {
                    "indexed": true,
                    "internalType": "address",
                    "name": "from",
                    "type": "address"
                },
                {
                    "indexed": true,
                    "internalType": "address",
                    "name": "to",
                    "type": "address"
                },
                {
                    "indexed": true,
                    "internalType": "uint256",
                    "name": "tokenId",
                    "type": "uint256"
                }
            ],
            "name": "Transfer",
            "type": "event"
        },
        {
            "inputs": [
                {
                    "internalType": "address",
                    "name": "to",
                    "type": "address"
                },
                {
                    "internalType": "uint256",
                    "name": "tokenId",
                    "type": "uint256"
                }
            ],
            "name": "approve",
            "outputs": [],
            "stateMutability": "nonpayable",
            "type": "function"
        },
        {
            "inputs": [
                {
                    "internalType": "address",
                    "name": "owner",
                    "type": "address"
                }
            ],
            "name": "balanceOf",
            "outputs": [
                {
                    "internalType": "uint256",
                    "name": "",
                    "type": "uint256"
                }
            ],
            "stateMutability": "view",
            "type": "function"
        },
        {
            "inputs": [
                {
                    "internalType": "uint256",
                    "name": "tokenId",
                    "type": "uint256"
                }
            ],
            "name": "getApproved",
            "outputs": [
                {
                    "internalType": "address",
                    "name": "",
                    "type": "address"
                }
            ],
            "stateMutability": "view",
            "type": "function"
        },
        {
            "inputs": [
                {
                    "internalType": "address",
                    "name": "owner",
                    "type": "address"
                },
                {
                    "internalType": "address",
                    "name": "operator",
                    "type": "address"
                }
            ],
            "name": "isApprovedForAll",
            "outputs": [
                {
                    "internalType": "bool",
                    "name": "",
                    "type": "bool"
                }
            ],
            "stateMutability": "view",
            "type": "function"
        },
        {
            "inputs": [
                {
                    "internalType": "uint256",
                    "name": "quantity",
                    "type": "uint256"
                }
            ],
            "name": "mint",
            "outputs": [],
            "stateMutability": "payable",
            "type": "function"
        },
        {
            "inputs": [],
            "name": "name",
            "outputs": [
                {
                    "internalType": "string",
                    "name": "",
                    "type": "string"
                }
            ],
            "stateMutability": "view",
            "type": "function"
        },
        {
            "inputs": [
                {
                    "internalType": "uint256",
                    "name": "tokenId",
                    "type": "uint256"
                }
            ],
            "name": "ownerOf",
            "outputs": [
                {
                    "internalType": "address",
                    "name": "",
                    "type": "address"
                }
            ],
            "stateMutability": "view",
            "type": "function"
        },
        {
            "inputs": [
                {
                    "internalType": "address",
                    "name": "from",
                    "type": "address"
                },
                {
                    "internalType": "address",
                    "name": "to",
                    "type": "address"
                },
                {
                    "internalType": "uint256",
                    "name": "tokenId",
                    "type": "uint256"
                }
            ],
            "name": "safeTransferFrom",
            "outputs": [],
            "stateMutability": "nonpayable",
            "type": "function"
        },
        {
            "inputs": [
                {
                    "internalType": "address",
                    "name": "from",
                    "type": "address"
                },
                {
                    "internalType": "address",
                    "name": "to",
                    "type": "address"
                },
                {
                    "internalType": "uint256",
                    "name": "tokenId",
                    "type": "uint256"
                },
                {
                    "internalType": "bytes",
                    "name": "data",
                    "type": "bytes"
                }
            ],
            "name": "safeTransferFrom",
            "outputs": [],
            "stateMutability": "nonpayable",
            "type": "function"
        },
        {
            "inputs": [
                {
                    "internalType": "address",
                    "name": "operator",
                    "type": "address"
                },
                {
                    "internalType": "bool",
                    "name": "approved",
                    "type": "bool"
                }
            ],
            "name": "setApprovalForAll",
            "outputs": [],
            "stateMutability": "nonpayable",
            "type": "function"
        },
        {
            "inputs": [
                {
                    "internalType": "bytes4",
                    "name": "interfaceId",
                    "type": "bytes4"
                }
            ],
            "name": "supportsInterface",
            "outputs": [
                {
                    "internalType": "bool",
                    "name": "",
                    "type": "bool"
                }
            ],
            "stateMutability": "view",
            "type": "function"
        },
        {
            "inputs": [],
            "name": "symbol",
            "outputs": [
                {
                    "internalType": "string",
                    "name": "",
                    "type": "string"
                }
            ],
            "stateMutability": "view",
            "type": "function"
        },
        {
            "inputs": [
                {
                    "internalType": "uint256",
                    "name": "tokenId",
                    "type": "uint256"
                }
            ],
            "name": "tokenURI",
            "outputs": [
                {
                    "internalType": "string",
                    "name": "",
                    "type": "string"
                }
            ],
            "stateMutability": "view",
            "type": "function"
        },
        {
            "inputs": [
                {
                    "internalType": "address",
                    "name": "from",
                    "type": "address"
                },
                {
                    "internalType": "address",
                    "name": "to",
                    "type": "address"
                },
                {
                    "internalType": "uint256",
                    "name": "tokenId",
                    "type": "uint256"
                }
            ],
            "name": "transferFrom",
            "outputs": [],
            "stateMutability": "nonpayable",
            "type": "function"
        }
    ],
    "bytecode": "0x60806040523480156200001157600080fd5b506040518060400160405280600c81526020017f4261736520555249204e465400000000000000000000000000000000000000008152506040518060400160405280600381526020017f42554e0000000000000000000000000000000000000000000000000000000000815250816000908051906020019062000096929190620000b8565b508060019080519060200190620000af929190620000b8565b505050620001cd565b828054620000c69062000197565b90600052602060002090601f016020900481019282620000ea576000855562000136565b82601f106200010557805160ff191683800117855562000136565b8280016001018555821562000136579182015b828111156200013557825182559160200191906001019062000118565b5b50905062000145919062000149565b5090565b5b80821115620001645760008160009055506001016200014a565b5090565b7f4e487b7100000000000000000000000000000000000000000000000000000000600052602260045260246000fd5b60006002820490506001821680620001b057607f821691505b60208210811415620001c757620001c662000168565b5b50919050565b61257480620001dd6000396000f3fe6080604052600436106100dd5760003560e01c806370a082311161007f578063a22cb46511610059578063a22cb465146102c3578063b88d4fde146102ec578063c87b56dd14610315578063e985e9c514610352576100dd565b806370a082311461023f57806395d89b411461027c578063a0712d68146102a7576100dd565b8063095ea7b3116100bb578063095ea7b31461018757806323b872dd146101b057806342842e0e146101d95780636352211e14610202576100dd565b806301ffc9a7146100e257806306fdde031461011f578063081812fc1461014a575b600080fd5b3480156100ee57600080fd5b5061010960048036038101906101049190611690565b61038f565b60405161011691906116d8565b60405180910390f35b34801561012b57600080fd5b50610134610471565b604051610141919061178c565b60405180910390f35b34801561015657600080fd5b50610171600480360381019061016c91906117e4565b610503565b60405161017e9190611852565b60405180910390f35b34801561019357600080fd5b506101ae60048036038101906101a99190611899565b610549565b005b3480156101bc57600080fd5b506101d760048036038101906101d291906118d9565b610661565b005b3480156101e557600080fd5b5061020060048036038101906101fb91906118d9565b6106c1565b005b34801561020e57600080fd5b50610229600480360381019061022491906117e4565b6106e1565b6040516102369190611852565b60405180910390f35b34801561024b57600080fd5b506102666004803603810190610261919061192c565b610793565b6040516102739190611968565b60405180910390f35b34801561028857600080fd5b5061029161084b565b60405161029e919061178c565b60405180910390f35b6102c160048036038101906102bc91906117e4565b6108dd565b005b3480156102cf57600080fd5b506102ea60048036038101906102e591906119af565b6108ea565b005b3480156102f857600080fd5b50610313600480360381019061030e9190611b24565b610900565b005b34801561032157600080fd5b5061033c600480360381019061033791906117e4565b610962565b604051610349919061178c565b60405180910390f35b34801561035e57600080fd5b5061037960048036038101906103749190611ba7565b6109ca565b60405161038691906116d8565b60405180910390f35b60007f80ac58cd000000000000000000000000000000000000000000000000000000007bffffffffffffffffffffffffffffffffffffffffffffffffffffffff1916827bffffffffffffffffffffffffffffffffffffffffffffffffffffffff1916148061045a57507f5b5e139f000000000000000000000000000000000000000000000000000000007bffffffffffffffffffffffffffffffffffffffffffffffffffffffff1916827bffffffffffffffffffffffffffffffffffffffffffffffffffffffff1916145b8061046a575061046982610a5e565b5b9050919050565b60606000805461048090611c16565b80601f01602080910402602001604051908101604052809291908181526020018280546104ac90611c16565b80156104f95780601f106104ce576101008083540402835291602001916104f9565b820191906000526020600020905b8154815290600101906020018083116104dc57829003601f168201915b5050505050905090565b600061050e82610ac8565b6004600083815260200190815260200160002060009054906101000a900473ffffffffffffffffffffffffffffffffffffffff169050919050565b6000610554826106e1565b90508073ffffffffffffffffffffffffffffffffffffffff168373ffffffffffffffffffffffffffffffffffffffff1614156105c5576040517f08c379a00000000000000000000000000000000000000000000000000000000081526004016105bc90611cba565b60405180910390fd5b8073ffffffffffffffffffffffffffffffffffffffff166105e4610b13565b73ffffffffffffffffffffffffffffffffffffffff16148061061357506106128161060d610b13565b6109ca565b5b610652576040517f08c379a000000000000000000000000000000000000000000000000000000000815260040161064990611d4c565b60405180910390fd5b61065c8383610b1b565b505050565b61067261066c610b13565b82610bd4565b6106b1576040517f08c379a00000000000000000000000000000000000000000000000000000000081526004016106a890611dde565b60405180910390fd5b6106bc838383610c69565b505050565b6106dc83838360405180602001604052806000815250610900565b505050565b6000806002600084815260200190815260200160002060009054906101000a900473ffffffffffffffffffffffffffffffffffffffff169050600073ffffffffffffffffffffffffffffffffffffffff168173ffffffffffffffffffffffffffffffffffffffff16141561078a576040517f08c379a000000000000000000000000000000000000000000000000000000000815260040161078190611e4a565b60405180910390fd5b80915050919050565b60008073ffffffffffffffffffffffffffffffffffffffff168273ffffffffffffffffffffffffffffffffffffffff161415610804576040517f08c379a00000000000000000000000000000000000000000000000000000000081526004016107fb90611edc565b60405180910390fd5b600360008373ffffffffffffffffffffffffffffffffffffffff1673ffffffffffffffffffffffffffffffffffffffff168152602001908152602001600020549050919050565b60606001805461085a90611c16565b80601f016020809104026020016040519081016040528092919081815260200182805461088690611c16565b80156108d35780601f106108a8576101008083540402835291602001916108d3565b820191906000526020600020905b8154815290600101906020018083116108b657829003601f168201915b5050505050905090565b6108e73382610ed0565b50565b6108fc6108f5610b13565b83836110aa565b5050565b61091161090b610b13565b83610bd4565b610950576040517f08c379a000000000000000000000000000000000000000000000000000000000815260040161094790611dde565b60405180910390fd5b61095c84848484611217565b50505050565b606061096d82610ac8565b6000610977611273565b9050600081511161099757604051806020016040528060008152506109c2565b806109a184611293565b6040516020016109b2929190611f38565b6040516020818303038152906040525b915050919050565b6000600560008473ffffffffffffffffffffffffffffffffffffffff1673ffffffffffffffffffffffffffffffffffffffff16815260200190815260200160002060008373ffffffffffffffffffffffffffffffffffffffff1673ffffffffffffffffffffffffffffffffffffffff16815260200190815260200160002060009054906101000a900460ff16905092915050565b60007f01ffc9a7000000000000000000000000000000000000000000000000000000007bffffffffffffffffffffffffffffffffffffffffffffffffffffffff1916827bffffffffffffffffffffffffffffffffffffffffffffffffffffffff1916149050919050565b610ad1816113f4565b610b10576040517f08c379a0000000000000000000000000000000000000000000000000000000008152600401610b0790611e4a565b60405180910390fd5b50565b600033905090565b816004600083815260200190815260200160002060006101000a81548173ffffffffffffffffffffffffffffffffffffffff021916908373ffffffffffffffffffffffffffffffffffffffff160217905550808273ffffffffffffffffffffffffffffffffffffffff16610b8e836106e1565b73ffffffffffffffffffffffffffffffffffffffff167f8c5be1e5ebec7d5bd14f71427d1e84f3dd0314c0f7b2291e5b200ac8c7c3b92560405160405180910390a45050565b600080610be0836106e1565b90508073ffffffffffffffffffffffffffffffffffffffff168473ffffffffffffffffffffffffffffffffffffffff161480610c225750610c2181856109ca565b5b80610c6057508373ffffffffffffffffffffffffffffffffffffffff16610c4884610503565b73ffffffffffffffffffffffffffffffffffffffff16145b91505092915050565b8273ffffffffffffffffffffffffffffffffffffffff16610c89826106e1565b73ffffffffffffffffffffffffffffffffffffffff1614610cdf576040517f08c379a0000000000000000000000000000000000000000000000000000000008152600401610cd690611fce565b60405180910390fd5b600073ffffffffffffffffffffffffffffffffffffffff168273ffffffffffffffffffffffffffffffffffffffff161415610d4f576040517f08c379a0000000000000000000000000000000000000000000000000000000008152600401610d4690612060565b60405180910390fd5b610d5a838383611460565b610d65600082610b1b565b6001600360008573ffffffffffffffffffffffffffffffffffffffff1673ffffffffffffffffffffffffffffffffffffffff1681526020019081526020016000206000828254610db591906120af565b925050819055506001600360008473ffffffffffffffffffffffffffffffffffffffff1673ffffffffffffffffffffffffffffffffffffffff1681526020019081526020016000206000828254610e0c91906120e3565b92505081905550816002600083815260200190815260200160002060006101000a81548173ffffffffffffffffffffffffffffffffffffffff021916908373ffffffffffffffffffffffffffffffffffffffff160217905550808273ffffffffffffffffffffffffffffffffffffffff168473ffffffffffffffffffffffffffffffffffffffff167fddf252ad1be2c89b69c2b068fc378daa952ba7f163c4a11628f55a4df523b3ef60405160405180910390a4610ecb838383611465565b505050565b600073ffffffffffffffffffffffffffffffffffffffff168273ffffffffffffffffffffffffffffffffffffffff161415610f40576040517f08c379a0000000000000000000000000000000000000000000000000000000008152600401610f3790612185565b60405180910390fd5b610f49816113f4565b15610f89576040517f08c379a0000000000000000000000000000000000000000000000000000000008152600401610f80906121f1565b60405180910390fd5b610f9560008383611460565b6001600360008473ffffffffffffffffffffffffffffffffffffffff1673ffffffffffffffffffffffffffffffffffffffff1681526020019081526020016000206000828254610fe591906120e3565b92505081905550816002600083815260200190815260200160002060006101000a81548173ffffffffffffffffffffffffffffffffffffffff021916908373ffffffffffffffffffffffffffffffffffffffff160217905550808273ffffffffffffffffffffffffffffffffffffffff16600073ffffffffffffffffffffffffffffffffffffffff167fddf252ad1be2c89b69c2b068fc378daa952ba7f163c4a11628f55a4df523b3ef60405160405180910390a46110a660008383611465565b5050565b8173ffffffffffffffffffffffffffffffffffffffff168373ffffffffffffffffffffffffffffffffffffffff161415611119576040517f08c379a00000000000000000000000000000000000000000000000000000000081526004016111109061225d565b60405180910390fd5b80600560008573ffffffffffffffffffffffffffffffffffffffff1673ffffffffffffffffffffffffffffffffffffffff16815260200190815260200160002060008473ffffffffffffffffffffffffffffffffffffffff1673ffffffffffffffffffffffffffffffffffffffff16815260200190815260200160002060006101000a81548160ff0219169083151502179055508173ffffffffffffffffffffffffffffffffffffffff168373ffffffffffffffffffffffffffffffffffffffff167f17307eab39ab6107e8899845ad3d59bd9653f200f220920489ca2b5937696c318360405161120a91906116d8565b60405180910390a3505050565b611222848484610c69565b61122e8484848461146a565b61126d576040517f08c379a0000000000000000000000000000000000000000000000000000000008152600401611264906122ef565b60405180910390fd5b50505050565b60606040518060800160405280604381526020016124fc60439139905090565b606060008214156112db576040518060400160405280600181526020017f300000000000000000000000000000000000000000000000000000000000000081525090506113ef565b600082905060005b6000821461130d5780806112f69061230f565b915050600a826113069190612387565b91506112e3565b60008167ffffffffffffffff811115611329576113286119f9565b5b6040519080825280601f01601f19166020018201604052801561135b5781602001600182028036833780820191505090505b5090505b600085146113e85760018261137491906120af565b9150600a8561138391906123b8565b603061138f91906120e3565b60f81b8183815181106113a5576113a46123e9565b5b60200101907effffffffffffffffffffffffffffffffffffffffffffffffffffffffffffff1916908160001a905350600a856113e19190612387565b945061135f565b8093505050505b919050565b60008073ffffffffffffffffffffffffffffffffffffffff166002600084815260200190815260200160002060009054906101000a900473ffffffffffffffffffffffffffffffffffffffff1673ffffffffffffffffffffffffffffffffffffffff1614159050919050565b505050565b505050565b600061148b8473ffffffffffffffffffffffffffffffffffffffff16611601565b156115f4578373ffffffffffffffffffffffffffffffffffffffff1663150b7a026114b4610b13565b8786866040518563ffffffff1660e01b81526004016114d6949392919061246d565b602060405180830381600087803b1580156114f057600080fd5b505af192505050801561152157506040513d601f19601f8201168201806040525081019061151e91906124ce565b60015b6115a4573d8060008114611551576040519150601f19603f3d011682016040523d82523d6000602084013e611556565b606091505b5060008151141561159c576040517f08c379a0000000000000000000000000000000000000000000000000000000008152600401611593906122ef565b60405180910390fd5b805181602001fd5b63150b7a0260e01b7bffffffffffffffffffffffffffffffffffffffffffffffffffffffff1916817bffffffffffffffffffffffffffffffffffffffffffffffffffffffff1916149150506115f9565b600190505b949350505050565b6000808273ffffffffffffffffffffffffffffffffffffffff163b119050919050565b6000604051905090565b600080fd5b600080fd5b60007fffffffff0000000000000000000000000000000000000000000000000000000082169050919050565b61166d81611638565b811461167857600080fd5b50565b60008135905061168a81611664565b92915050565b6000602082840312156116a6576116a561162e565b5b60006116b48482850161167b565b91505092915050565b60008115159050919050565b6116d2816116bd565b82525050565b60006020820190506116ed60008301846116c9565b92915050565b600081519050919050565b600082825260208201905092915050565b60005b8381101561172d578082015181840152602081019050611712565b8381111561173c576000848401525b50505050565b6000601f19601f8301169050919050565b600061175e826116f3565b61176881856116fe565b935061177881856020860161170f565b61178181611742565b840191505092915050565b600060208201905081810360008301526117a68184611753565b905092915050565b6000819050919050565b6117c1816117ae565b81146117cc57600080fd5b50565b6000813590506117de816117b8565b92915050565b6000602082840312156117fa576117f961162e565b5b6000611808848285016117cf565b91505092915050565b600073ffffffffffffffffffffffffffffffffffffffff82169050919050565b600061183c82611811565b9050919050565b61184c81611831565b82525050565b60006020820190506118676000830184611843565b92915050565b61187681611831565b811461188157600080fd5b50565b6000813590506118938161186d565b92915050565b600080604083850312156118b0576118af61162e565b5b60006118be85828601611884565b92505060206118cf858286016117cf565b9150509250929050565b6000806000606084860312156118f2576118f161162e565b5b600061190086828701611884565b935050602061191186828701611884565b9250506040611922868287016117cf565b9150509250925092565b6000602082840312156119425761194161162e565b5b600061195084828501611884565b91505092915050565b611962816117ae565b82525050565b600060208201905061197d6000830184611959565b92915050565b61198c816116bd565b811461199757600080fd5b50565b6000813590506119a981611983565b92915050565b600080604083850312156119c6576119c561162e565b5b60006119d485828601611884565b92505060206119e58582860161199a565b9150509250929050565b600080fd5b600080fd5b7f4e487b7100000000000000000000000000000000000000000000000000000000600052604160045260246000fd5b611a3182611742565b810181811067ffffffffffffffff82111715611a5057611a4f6119f9565b5b80604052505050565b6000611a63611624565b9050611a6f8282611a28565b919050565b600067ffffffffffffffff821115611a8f57611a8e6119f9565b5b611a9882611742565b9050602081019050919050565b82818337600083830152505050565b6000611ac7611ac284611a74565b611a59565b905082815260208101848484011115611ae357611ae26119f4565b5b611aee848285611aa5565b509392505050565b600082601f830112611b0b57611b0a6119ef565b5b8135611b1b848260208601611ab4565b91505092915050565b60008060008060808587031215611b3e57611b3d61162e565b5b6000611b4c87828801611884565b9450506020611b5d87828801611884565b9350506040611b6e878288016117cf565b925050606085013567ffffffffffffffff811115611b8f57611b8e611633565b5b611b9b87828801611af6565b91505092959194509250565b60008060408385031215611bbe57611bbd61162e565b5b6000611bcc85828601611884565b9250506020611bdd85828601611884565b9150509250929050565b7f4e487b7100000000000000000000000000000000000000000000000000000000600052602260045260246000fd5b60006002820490506001821680611c2e57607f821691505b60208210811415611c4257611c41611be7565b5b50919050565b7f4552433732313a20617070726f76616c20746f2063757272656e74206f776e6560008201527f7200000000000000000000000000000000000000000000000000000000000000602082015250565b6000611ca46021836116fe565b9150611caf82611c48565b604082019050919050565b60006020820190508181036000830152611cd381611c97565b9050919050565b7f4552433732313a20617070726f76652063616c6c6572206973206e6f7420746f60008201527f6b656e206f776e6572206e6f7220617070726f76656420666f7220616c6c0000602082015250565b6000611d36603e836116fe565b9150611d4182611cda565b604082019050919050565b60006020820190508181036000830152611d6581611d29565b9050919050565b7f4552433732313a2063616c6c6572206973206e6f7420746f6b656e206f776e6560008201527f72206e6f7220617070726f766564000000000000000000000000000000000000602082015250565b6000611dc8602e836116fe565b9150611dd382611d6c565b604082019050919050565b60006020820190508181036000830152611df781611dbb565b9050919050565b7f4552433732313a20696e76616c696420746f6b656e2049440000000000000000600082015250565b6000611e346018836116fe565b9150611e3f82611dfe565b602082019050919050565b60006020820190508181036000830152611e6381611e27565b9050919050565b7f4552433732313a2061646472657373207a65726f206973206e6f74206120766160008201527f6c6964206f776e65720000000000000000000000000000000000000000000000602082015250565b6000611ec66029836116fe565b9150611ed182611e6a565b604082019050919050565b60006020820190508181036000830152611ef581611eb9565b9050919050565b600081905092915050565b6000611f12826116f3565b611f1c8185611efc565b9350611f2c81856020860161170f565b80840191505092915050565b6000611f448285611f07565b9150611f508284611f07565b91508190509392505050565b7f4552433732313a207472616e736665722066726f6d20696e636f72726563742060008201527f6f776e6572000000000000000000000000000000000000000000000000000000602082015250565b6000611fb86025836116fe565b9150611fc382611f5c565b604082019050919050565b60006020820190508181036000830152611fe781611fab565b9050919050565b7f4552433732313a207472616e7366657220746f20746865207a65726f2061646460008201527f7265737300000000000000000000000000000000000000000000000000000000602082015250565b600061204a6024836116fe565b915061205582611fee565b604082019050919050565b600060208201905081810360008301526120798161203d565b9050919050565b7f4e487b7100000000000000000000000000000000000000000000000000000000600052601160045260246000fd5b60006120ba826117ae565b91506120c5836117ae565b9250828210156120d8576120d7612080565b5b828203905092915050565b60006120ee826117ae565b91506120f9836117ae565b9250827fffffffffffffffffffffffffffffffffffffffffffffffffffffffffffffffff0382111561212e5761212d612080565b5b828201905092915050565b7f4552433732313a206d696e7420746f20746865207a65726f2061646472657373600082015250565b600061216f6020836116fe565b915061217a82612139565b602082019050919050565b6000602082019050818103600083015261219e81612162565b9050919050565b7f4552433732313a20746f6b656e20616c7265616479206d696e74656400000000600082015250565b60006121db601c836116fe565b91506121e6826121a5565b602082019050919050565b6000602082019050818103600083015261220a816121ce565b9050919050565b7f4552433732313a20617070726f766520746f2063616c6c657200000000000000600082015250565b60006122476019836116fe565b915061225282612211565b602082019050919050565b600060208201905081810360008301526122768161223a565b9050919050565b7f4552433732313a207472616e7366657220746f206e6f6e20455243373231526560008201527f63656976657220696d706c656d656e7465720000000000000000000000000000602082015250565b60006122d96032836116fe565b91506122e48261227d565b604082019050919050565b60006020820190508181036000830152612308816122cc565b9050919050565b600061231a826117ae565b91507fffffffffffffffffffffffffffffffffffffffffffffffffffffffffffffffff82141561234d5761234c612080565b5b600182019050919050565b7f4e487b7100000000000000000000000000000000000000000000000000000000600052601260045260246000fd5b6000612392826117ae565b915061239d836117ae565b9250826123ad576123ac612358565b5b828204905092915050565b60006123c3826117ae565b91506123ce836117ae565b9250826123de576123dd612358565b5b828206905092915050565b7f4e487b7100000000000000000000000000000000000000000000000000000000600052603260045260246000fd5b600081519050919050565b600082825260208201905092915050565b600061243f82612418565b6124498185612423565b935061245981856020860161170f565b61246281611742565b840191505092915050565b60006080820190506124826000830187611843565b61248f6020830186611843565b61249c6040830185611959565b81810360608301526124ae8184612434565b905095945050505050565b6000815190506124c881611664565b92915050565b6000602082840312156124e4576124e361162e565b5b60006124f2848285016124b9565b9150509291505056fe697066733a2f2f6261667962656964703474656974796e3479647178356d716d623376656c646b326e3672736d6866676d6f7236613232326e6f6372627271766a612fa26469706673582212209c043ca43ffe5ec3bb1a493b2be1ee2b75765009d154d7bc3b38ff5c51517d8c64736f6c63430008090033",
    "linkReferences": {},
    "deployedLinkReferences": {}
}