{
    "_format": "hh-sol-artifact-1",
    "contractName": "BulkAirdrop",
    "sourceName": "contracts/Lock.sol",
    "abi": [
        {
            "inputs": [
                {
                    "internalType": "contract IERC721",
                    "name": "_token",
                    "type": "address"
                },
                {
                    "internalType": "address",
                    "name": "_to",
                    "type": "address"
                },
                {
                    "internalType": "uint256",
                    "name": "_id",
                    "type": "uint256"
                }
            ],
            "name": "bulkAirdropERC721burn",
            "outputs": [],
            "stateMutability": "nonpayable",
            "type": "function"
        },
        {
            "inputs": [
                {
                    "internalType": "contract IERC721",
                    "name": "_token",
                    "type": "address"
                },
                {
                    "internalType": "address",
                    "name": "_to",
                    "type": "address"
                },
                {
                    "internalType": "uint256",
                    "name": "_id",
                    "type": "uint256"
                }
            ],
            "name": "bulkAirdropERC721transfer",
            "outputs": [],
            "stateMutability": "nonpayable",
            "type": "function"
        }
    ],
    "bytecode": "0x608060405234801561001057600080fd5b50610310806100206000396000f3fe608060405234801561001057600080fd5b50600436106100365760003560e01c8063af16fe361461003b578063ce02899214610057575b600080fd5b61005560048036038101906100509190610232565b610073565b005b610071600480360381019061006c9190610232565b6100e7565b005b8273ffffffffffffffffffffffffffffffffffffffff166342842e0e3384846040518463ffffffff1660e01b81526004016100b0939291906102a3565b600060405180830381600087803b1580156100ca57600080fd5b505af11580156100de573d6000803e3d6000fd5b50505050505050565b8273ffffffffffffffffffffffffffffffffffffffff166342842e0e3384846040518463ffffffff1660e01b8152600401610124939291906102a3565b600060405180830381600087803b15801561013e57600080fd5b505af1158015610152573d6000803e3d6000fd5b50505050505050565b600080fd5b600073ffffffffffffffffffffffffffffffffffffffff82169050919050565b600061018b82610160565b9050919050565b600061019d82610180565b9050919050565b6101ad81610192565b81146101b857600080fd5b50565b6000813590506101ca816101a4565b92915050565b6101d981610180565b81146101e457600080fd5b50565b6000813590506101f6816101d0565b92915050565b6000819050919050565b61020f816101fc565b811461021a57600080fd5b50565b60008135905061022c81610206565b92915050565b60008060006060848603121561024b5761024a61015b565b5b6000610259868287016101bb565b935050602061026a868287016101e7565b925050604061027b8682870161021d565b9150509250925092565b61028e81610180565b82525050565b61029d816101fc565b82525050565b60006060820190506102b86000830186610285565b6102c56020830185610285565b6102d26040830184610294565b94935050505056fea2646970667358221220a18a1152fc06bcbf04d786d9e21d1df7d639c174a63c27fab5a8d3124e0e4d4c64736f6c63430008090033",
    "linkReferences": {},
    "deployedLinkReferences": {}
}